{
  "_format": "hh-sol-artifact-1",
  "contractName": "SimpleNFT",
  "sourceName": "contracts/SimpleNFT.sol",
  "abi": [
    {
      "inputs": [],
      "stateMutability": "nonpayable",
      "type": "constructor"
    },
    {
      "inputs": [
        {
          "internalType": "address",
          "name": "sender",
          "type": "address"
        },
        {
          "internalType": "uint256",
          "name": "tokenId",
          "type": "uint256"
        },
        {
          "internalType": "address",
          "name": "owner",
          "type": "address"
        }
      ],
      "name": "ERC721IncorrectOwner",
      "type": "error"
    },
    {
      "inputs": [
        {
          "internalType": "address",
          "name": "operator",
          "type": "address"
        },
        {
          "internalType": "uint256",
          "name": "tokenId",
          "type": "uint256"
        }
      ],
      "name": "ERC721InsufficientApproval",
      "type": "error"
    },
    {
      "inputs": [
        {
          "internalType": "address",
          "name": "approver",
          "type": "address"
        }
      ],
      "name": "ERC721InvalidApprover",
      "type": "error"
    },
    {
      "inputs": [
        {
          "internalType": "address",
          "name": "operator",
          "type": "address"
        }
      ],
      "name": "ERC721InvalidOperator",
      "type": "error"
    },
    {
      "inputs": [
        {
          "internalType": "address",
          "name": "owner",
          "type": "address"
        }
      ],
      "name": "ERC721InvalidOwner",
      "type": "error"
    },
    {
      "inputs": [
        {
          "internalType": "address",
          "name": "receiver",
          "type": "address"
        }
      ],
      "name": "ERC721InvalidReceiver",
      "type": "error"
    },
    {
      "inputs": [
        {
          "internalType": "address",
          "name": "sender",
          "type": "address"
        }
      ],
      "name": "ERC721InvalidSender",
      "type": "error"
    },
    {
      "inputs": [
        {
          "internalType": "uint256",
          "name": "tokenId",
          "type": "uint256"
        }
      ],
      "name": "ERC721NonexistentToken",
      "type": "error"
    },
    {
      "inputs": [
        {
          "internalType": "address",
          "name": "owner",
          "type": "address"
        }
      ],
      "name": "OwnableInvalidOwner",
      "type": "error"
    },
    {
      "inputs": [
        {
          "internalType": "address",
          "name": "account",
          "type": "address"
        }
      ],
      "name": "OwnableUnauthorizedAccount",
      "type": "error"
    },
    {
      "anonymous": false,
      "inputs": [
        {
          "indexed": true,
          "internalType": "address",
          "name": "owner",
          "type": "address"
        },
        {
          "indexed": true,
          "internalType": "address",
          "name": "approved",
          "type": "address"
        },
        {
          "indexed": true,
          "internalType": "uint256",
          "name": "tokenId",
          "type": "uint256"
        }
      ],
      "name": "Approval",
      "type": "event"
    },
    {
      "anonymous": false,
      "inputs": [
        {
          "indexed": true,
          "internalType": "address",
          "name": "owner",
          "type": "address"
        },
        {
          "indexed": true,
          "internalType": "address",
          "name": "operator",
          "type": "address"
        },
        {
          "indexed": false,
          "internalType": "bool",
          "name": "approved",
          "type": "bool"
        }
      ],
      "name": "ApprovalForAll",
      "type": "event"
    },
    {
      "anonymous": false,
      "inputs": [
        {
          "indexed": false,
          "internalType": "uint256",
          "name": "tokenId",
          "type": "uint256"
        },
        {
          "indexed": false,
          "internalType": "string",
          "name": "fileHash",
          "type": "string"
        },
        {
          "indexed": false,
          "internalType": "uint256",
          "name": "timestamp",
          "type": "uint256"
        }
      ],
      "name": "FileMint",
      "type": "event"
    },
    {
      "anonymous": false,
      "inputs": [
        {
          "indexed": false,
          "internalType": "uint256",
          "name": "tokenId",
          "type": "uint256"
        },
        {
          "indexed": false,
          "internalType": "uint256",
          "name": "timestamp",
          "type": "uint256"
        },
        {
          "indexed": false,
          "internalType": "uint256",
          "name": "gasUsed",
          "type": "uint256"
        }
      ],
      "name": "MintTime",
      "type": "event"
    },
    {
      "anonymous": false,
      "inputs": [
        {
          "indexed": true,
          "internalType": "address",
          "name": "previousOwner",
          "type": "address"
        },
        {
          "indexed": true,
          "internalType": "address",
          "name": "newOwner",
          "type": "address"
        }
      ],
      "name": "OwnershipTransferred",
      "type": "event"
    },
    {
      "anonymous": false,
      "inputs": [
        {
          "indexed": true,
          "internalType": "address",
          "name": "from",
          "type": "address"
        },
        {
          "indexed": true,
          "internalType": "address",
          "name": "to",
          "type": "address"
        },
        {
          "indexed": true,
          "internalType": "uint256",
          "name": "tokenId",
          "type": "uint256"
        }
      ],
      "name": "Transfer",
      "type": "event"
    },
    {
      "inputs": [
        {
          "internalType": "address",
          "name": "to",
          "type": "address"
        },
        {
          "internalType": "uint256",
          "name": "tokenId",
          "type": "uint256"
        }
      ],
      "name": "approve",
      "outputs": [],
      "stateMutability": "nonpayable",
      "type": "function"
    },
    {
      "inputs": [
        {
          "internalType": "address",
          "name": "owner",
          "type": "address"
        }
      ],
      "name": "balanceOf",
      "outputs": [
        {
          "internalType": "uint256",
          "name": "",
          "type": "uint256"
        }
      ],
      "stateMutability": "view",
      "type": "function"
    },
    {
      "inputs": [
        {
          "internalType": "uint256",
          "name": "quantity",
          "type": "uint256"
        }
      ],
      "name": "batchMint",
      "outputs": [],
      "stateMutability": "payable",
      "type": "function"
    },
    {
      "inputs": [
        {
          "internalType": "string[]",
          "name": "fileHashes",
          "type": "string[]"
        },
        {
          "internalType": "string[]",
          "name": "tokenURIs",
          "type": "string[]"
        }
      ],
      "name": "batchMintWithFiles",
      "outputs": [],
      "stateMutability": "payable",
      "type": "function"
    },
    {
      "inputs": [
        {
          "internalType": "uint256",
          "name": "tokenId",
          "type": "uint256"
        }
      ],
      "name": "getApproved",
      "outputs": [
        {
          "internalType": "address",
          "name": "",
          "type": "address"
        }
      ],
      "stateMutability": "view",
      "type": "function"
    },
    {
      "inputs": [
        {
          "internalType": "address",
          "name": "owner",
          "type": "address"
        },
        {
          "internalType": "address",
          "name": "operator",
          "type": "address"
        }
      ],
      "name": "isApprovedForAll",
      "outputs": [
        {
          "internalType": "bool",
          "name": "",
          "type": "bool"
        }
      ],
      "stateMutability": "view",
      "type": "function"
    },
    {
      "inputs": [],
      "name": "maxSupply",
      "outputs": [
        {
          "internalType": "uint256",
          "name": "",
          "type": "uint256"
        }
      ],
      "stateMutability": "view",
      "type": "function"
    },
    {
      "inputs": [],
      "name": "mint",
      "outputs": [],
      "stateMutability": "payable",
      "type": "function"
    },
    {
      "inputs": [],
      "name": "mintPrice",
      "outputs": [
        {
          "internalType": "uint256",
          "name": "",
          "type": "uint256"
        }
      ],
      "stateMutability": "view",
      "type": "function"
    },
    {
      "inputs": [
        {
          "internalType": "string",
          "name": "fileHash",
          "type": "string"
        },
        {
          "internalType": "string",
          "name": "tokenURI",
          "type": "string"
        }
      ],
      "name": "mintWithFile",
      "outputs": [],
      "stateMutability": "payable",
      "type": "function"
    },
    {
      "inputs": [],
      "name": "name",
      "outputs": [
        {
          "internalType": "string",
          "name": "",
          "type": "string"
        }
      ],
      "stateMutability": "view",
      "type": "function"
    },
    {
      "inputs": [],
      "name": "owner",
      "outputs": [
        {
          "internalType": "address",
          "name": "",
          "type": "address"
        }
      ],
      "stateMutability": "view",
      "type": "function"
    },
    {
      "inputs": [
        {
          "internalType": "uint256",
          "name": "tokenId",
          "type": "uint256"
        }
      ],
      "name": "ownerOf",
      "outputs": [
        {
          "internalType": "address",
          "name": "",
          "type": "address"
        }
      ],
      "stateMutability": "view",
      "type": "function"
    },
    {
      "inputs": [],
      "name": "renounceOwnership",
      "outputs": [],
      "stateMutability": "nonpayable",
      "type": "function"
    },
    {
      "inputs": [
        {
          "internalType": "address",
          "name": "from",
          "type": "address"
        },
        {
          "internalType": "address",
          "name": "to",
          "type": "address"
        },
        {
          "internalType": "uint256",
          "name": "tokenId",
          "type": "uint256"
        }
      ],
      "name": "safeTransferFrom",
      "outputs": [],
      "stateMutability": "nonpayable",
      "type": "function"
    },
    {
      "inputs": [
        {
          "internalType": "address",
          "name": "from",
          "type": "address"
        },
        {
          "internalType": "address",
          "name": "to",
          "type": "address"
        },
        {
          "internalType": "uint256",
          "name": "tokenId",
          "type": "uint256"
        },
        {
          "internalType": "bytes",
          "name": "data",
          "type": "bytes"
        }
      ],
      "name": "safeTransferFrom",
      "outputs": [],
      "stateMutability": "nonpayable",
      "type": "function"
    },
    {
      "inputs": [
        {
          "internalType": "address",
          "name": "operator",
          "type": "address"
        },
        {
          "internalType": "bool",
          "name": "approved",
          "type": "bool"
        }
      ],
      "name": "setApprovalForAll",
      "outputs": [],
      "stateMutability": "nonpayable",
      "type": "function"
    },
    {
      "inputs": [
        {
          "internalType": "uint256",
          "name": "_newPrice",
          "type": "uint256"
        }
      ],
      "name": "setMintPrice",
      "outputs": [],
      "stateMutability": "nonpayable",
      "type": "function"
    },
    {
      "inputs": [
        {
          "internalType": "bytes4",
          "name": "interfaceId",
          "type": "bytes4"
        }
      ],
      "name": "supportsInterface",
      "outputs": [
        {
          "internalType": "bool",
          "name": "",
          "type": "bool"
        }
      ],
      "stateMutability": "view",
      "type": "function"
    },
    {
      "inputs": [],
      "name": "symbol",
      "outputs": [
        {
          "internalType": "string",
          "name": "",
          "type": "string"
        }
      ],
      "stateMutability": "view",
      "type": "function"
    },
    {
      "inputs": [
        {
          "internalType": "uint256",
          "name": "tokenId",
          "type": "uint256"
        }
      ],
      "name": "tokenURI",
      "outputs": [
        {
          "internalType": "string",
          "name": "",
          "type": "string"
        }
      ],
      "stateMutability": "view",
      "type": "function"
    },
    {
      "inputs": [],
      "name": "totalSupply",
      "outputs": [
        {
          "internalType": "uint256",
          "name": "",
          "type": "uint256"
        }
      ],
      "stateMutability": "view",
      "type": "function"
    },
    {
      "inputs": [
        {
          "internalType": "address",
          "name": "from",
          "type": "address"
        },
        {
          "internalType": "address",
          "name": "to",
          "type": "address"
        },
        {
          "internalType": "uint256",
          "name": "tokenId",
          "type": "uint256"
        }
      ],
      "name": "transferFrom",
      "outputs": [],
      "stateMutability": "nonpayable",
      "type": "function"
    },
    {
      "inputs": [
        {
          "internalType": "address",
          "name": "newOwner",
          "type": "address"
        }
      ],
      "name": "transferOwnership",
      "outputs": [],
      "stateMutability": "nonpayable",
      "type": "function"
    },
    {
      "inputs": [],
      "name": "withdraw",
      "outputs": [],
      "stateMutability": "nonpayable",
      "type": "function"
    }
  ],
  "bytecode": "0x60806040526001600755655af3107a40006008556127106009553480156200002657600080fd5b50336040518060400160405280600981526020017f53696d706c654e465400000000000000000000000000000000000000000000008152506040518060400160405280600481526020017f534e4654000000000000000000000000000000000000000000000000000000008152508160009081620000a5919062000487565b508060019081620000b7919062000487565b505050600073ffffffffffffffffffffffffffffffffffffffff168173ffffffffffffffffffffffffffffffffffffffff16036200012f5760006040517f1e4fbdf7000000000000000000000000000000000000000000000000000000008152600401620001269190620005b3565b60405180910390fd5b62000140816200014760201b60201c565b50620005d0565b6000600660009054906101000a900473ffffffffffffffffffffffffffffffffffffffff16905081600660006101000a81548173ffffffffffffffffffffffffffffffffffffffff021916908373ffffffffffffffffffffffffffffffffffffffff1602179055508173ffffffffffffffffffffffffffffffffffffffff168173ffffffffffffffffffffffffffffffffffffffff167f8be0079c531659141344cd1fd0a4f28419497f9722a3daafe3b4186f6b6457e060405160405180910390a35050565b600081519050919050565b7f4e487b7100000000000000000000000000000000000000000000000000000000600052604160045260246000fd5b7f4e487b7100000000000000000000000000000000000000000000000000000000600052602260045260246000fd5b600060028204905060018216806200028f57607f821691505b602082108103620002a557620002a462000247565b5b50919050565b60008190508160005260206000209050919050565b60006020601f8301049050919050565b600082821b905092915050565b6000600883026200030f7fffffffffffffffffffffffffffffffffffffffffffffffffffffffffffffffff82620002d0565b6200031b8683620002d0565b95508019841693508086168417925050509392505050565b6000819050919050565b6000819050919050565b600062000368620003626200035c8462000333565b6200033d565b62000333565b9050919050565b6000819050919050565b620003848362000347565b6200039c62000393826200036f565b848454620002dd565b825550505050565b600090565b620003b3620003a4565b620003c081848462000379565b505050565b5b81811015620003e857620003dc600082620003a9565b600181019050620003c6565b5050565b601f82111562000437576200040181620002ab565b6200040c84620002c0565b810160208510156200041c578190505b620004346200042b85620002c0565b830182620003c5565b50505b505050565b600082821c905092915050565b60006200045c600019846008026200043c565b1980831691505092915050565b600062000477838362000449565b9150826002028217905092915050565b62000492826200020d565b67ffffffffffffffff811115620004ae57620004ad62000218565b5b620004ba825462000276565b620004c7828285620003ec565b600060209050601f831160018114620004ff5760008415620004ea578287015190505b620004f6858262000469565b86555062000566565b601f1984166200050f86620002ab565b60005b82811015620005395784890151825560018201915060208501945060208101905062000512565b8683101562000559578489015162000555601f89168262000449565b8355505b6001600288020188555050505b505050505050565b600073ffffffffffffffffffffffffffffffffffffffff82169050919050565b60006200059b826200056e565b9050919050565b620005ad816200058e565b82525050565b6000602082019050620005ca6000830184620005a2565b92915050565b61333f80620005e06000396000f3fe6080604052600436106101665760003560e01c8063715018a6116100d1578063b88d4fde1161008a578063e985e9c511610064578063e985e9c5146104db578063ef5956b114610518578063f2fde38b14610534578063f4a0a5281461055d57610166565b8063b88d4fde1461044a578063c87b56dd14610473578063d5abeb01146104b057610166565b8063715018a61461037c5780638467be0d146103935780638da5cb5b146103af57806395d89b41146103da5780639d621f0114610405578063a22cb4651461042157610166565b806323b872dd1161012357806323b872dd1461026e5780633ccfd60b1461029757806342842e0e146102ae5780636352211e146102d75780636817c76c1461031457806370a082311461033f57610166565b806301ffc9a71461016b57806306fdde03146101a8578063081812fc146101d3578063095ea7b3146102105780631249c58b1461023957806318160ddd14610243575b600080fd5b34801561017757600080fd5b50610192600480360381019061018d9190612247565b610586565b60405161019f919061228f565b60405180910390f35b3480156101b457600080fd5b506101bd610668565b6040516101ca919061233a565b60405180910390f35b3480156101df57600080fd5b506101fa60048036038101906101f59190612392565b6106fa565b6040516102079190612400565b60405180910390f35b34801561021c57600080fd5b5061023760048036038101906102329190612447565b610716565b005b61024161072c565b005b34801561024f57600080fd5b50610258610832565b6040516102659190612496565b60405180910390f35b34801561027a57600080fd5b50610295600480360381019061029091906124b1565b610848565b005b3480156102a357600080fd5b506102ac61094a565b005b3480156102ba57600080fd5b506102d560048036038101906102d091906124b1565b6109a2565b005b3480156102e357600080fd5b506102fe60048036038101906102f99190612392565b6109c2565b60405161030b9190612400565b60405180910390f35b34801561032057600080fd5b506103296109d4565b6040516103369190612496565b60405180910390f35b34801561034b57600080fd5b5061036660048036038101906103619190612504565b6109da565b6040516103739190612496565b60405180910390f35b34801561038857600080fd5b50610391610a94565b005b6103ad60048036038101906103a89190612392565b610aa8565b005b3480156103bb57600080fd5b506103c4610b9e565b6040516103d19190612400565b60405180910390f35b3480156103e657600080fd5b506103ef610bc8565b6040516103fc919061233a565b60405180910390f35b61041f600480360381019061041a9190612666565b610c5a565b005b34801561042d57600080fd5b506104486004803603810190610443919061270a565b610e02565b005b34801561045657600080fd5b50610471600480360381019061046c91906127eb565b610e18565b005b34801561047f57600080fd5b5061049a60048036038101906104959190612392565b610e35565b6040516104a7919061233a565b60405180910390f35b3480156104bc57600080fd5b506104c5610f4c565b6040516104d29190612496565b60405180910390f35b3480156104e757600080fd5b5061050260048036038101906104fd919061286e565b610f52565b60405161050f919061228f565b60405180910390f35b610532600480360381019061052d9190612994565b610fe6565b005b34801561054057600080fd5b5061055b60048036038101906105569190612504565b611212565b005b34801561056957600080fd5b50610584600480360381019061057f9190612392565b611298565b005b60007f80ac58cd000000000000000000000000000000000000000000000000000000007bffffffffffffffffffffffffffffffffffffffffffffffffffffffff1916827bffffffffffffffffffffffffffffffffffffffffffffffffffffffff1916148061065157507f5b5e139f000000000000000000000000000000000000000000000000000000007bffffffffffffffffffffffffffffffffffffffffffffffffffffffff1916827bffffffffffffffffffffffffffffffffffffffffffffffffffffffff1916145b806106615750610660826112aa565b5b9050919050565b60606000805461067790612a3b565b80601f01602080910402602001604051908101604052809291908181526020018280546106a390612a3b565b80156106f05780601f106106c5576101008083540402835291602001916106f0565b820191906000526020600020905b8154815290600101906020018083116106d357829003601f168201915b5050505050905090565b600061070582611314565b5061070f8261139c565b9050919050565b61072882826107236113d9565b6113e1565b5050565b60005a9050600854341015610776576040517f08c379a000000000000000000000000000000000000000000000000000000000815260040161076d90612ab8565b60405180910390fd5b60095460075411156107bd576040517f08c379a00000000000000000000000000000000000000000000000000000000081526004016107b490612b24565b60405180910390fd5b6000600760008154809291906107d290612b73565b9190505590506107e233826113f3565b60005a836107f09190612bbb565b90507fc0a5683c31d25098436aa598b2beb88ab5b9d704d80898a32d5ac5755634e21f82428360405161082593929190612bef565b60405180910390a1505050565b600060016007546108439190612bbb565b905090565b600073ffffffffffffffffffffffffffffffffffffffff168273ffffffffffffffffffffffffffffffffffffffff16036108ba5760006040517f64a0ae920000000000000000000000000000000000000000000000000000000081526004016108b19190612400565b60405180910390fd5b60006108ce83836108c96113d9565b611411565b90508373ffffffffffffffffffffffffffffffffffffffff168173ffffffffffffffffffffffffffffffffffffffff1614610944578382826040517f64283d7b00000000000000000000000000000000000000000000000000000000815260040161093b93929190612c26565b60405180910390fd5b50505050565b61095261162b565b61095a610b9e565b73ffffffffffffffffffffffffffffffffffffffff166108fc479081150290604051600060405180830381858888f1935050505015801561099f573d6000803e3d6000fd5b50565b6109bd83838360405180602001604052806000815250610e18565b505050565b60006109cd82611314565b9050919050565b60085481565b60008073ffffffffffffffffffffffffffffffffffffffff168273ffffffffffffffffffffffffffffffffffffffff1603610a4d5760006040517f89c62b64000000000000000000000000000000000000000000000000000000008152600401610a449190612400565b60405180910390fd5b600360008373ffffffffffffffffffffffffffffffffffffffff1673ffffffffffffffffffffffffffffffffffffffff168152602001908152602001600020549050919050565b610a9c61162b565b610aa660006116b2565b565b80600854610ab69190612c5d565b341015610af8576040517f08c379a0000000000000000000000000000000000000000000000000000000008152600401610aef90612ab8565b60405180910390fd5b600954600182600754610b0b9190612c9f565b610b159190612bbb565b1115610b56576040517f08c379a0000000000000000000000000000000000000000000000000000000008152600401610b4d90612d1f565b60405180910390fd5b60005b81811015610b9a57600060076000815480929190610b7690612b73565b919050559050610b8633826113f3565b508080610b9290612b73565b915050610b59565b5050565b6000600660009054906101000a900473ffffffffffffffffffffffffffffffffffffffff16905090565b606060018054610bd790612a3b565b80601f0160208091040260200160405190810160405280929190818152602001828054610c0390612a3b565b8015610c505780601f10610c2557610100808354040283529160200191610c50565b820191906000526020600020905b815481529060010190602001808311610c3357829003601f168201915b5050505050905090565b60005a9050600854341015610ca4576040517f08c379a0000000000000000000000000000000000000000000000000000000008152600401610c9b90612ab8565b60405180910390fd5b6009546007541115610ceb576040517f08c379a0000000000000000000000000000000000000000000000000000000008152600401610ce290612b24565b60405180910390fd5b6000835111610d2f576040517f08c379a0000000000000000000000000000000000000000000000000000000008152600401610d2690612d8b565b60405180910390fd5b600060076000815480929190610d4490612b73565b919050559050610d5433826113f3565b82600a60008381526020019081526020016000209081610d749190612f57565b5060005a83610d839190612bbb565b90507fc0a5683c31d25098436aa598b2beb88ab5b9d704d80898a32d5ac5755634e21f824283604051610db893929190612bef565b60405180910390a17fd1be5b5b73bd2ee5ac20a7577463646b5c32b3affa77c0c18cd9645c1067fba6828642604051610df393929190613029565b60405180910390a15050505050565b610e14610e0d6113d9565b8383611778565b5050565b610e23848484610848565b610e2f848484846118e7565b50505050565b6060600082118015610e48575060075482105b610e87576040517f08c379a0000000000000000000000000000000000000000000000000000000008152600401610e7e906130b3565b60405180910390fd5b6000600a60008481526020019081526020016000208054610ea790612a3b565b80601f0160208091040260200160405190810160405280929190818152602001828054610ed390612a3b565b8015610f205780601f10610ef557610100808354040283529160200191610f20565b820191906000526020600020905b815481529060010190602001808311610f0357829003601f168201915b50505050509050600081511115610f3a5780915050610f47565b610f4383611a9e565b9150505b919050565b60095481565b6000600560008473ffffffffffffffffffffffffffffffffffffffff1673ffffffffffffffffffffffffffffffffffffffff16815260200190815260200160002060008373ffffffffffffffffffffffffffffffffffffffff1673ffffffffffffffffffffffffffffffffffffffff16815260200190815260200160002060009054906101000a900460ff16905092915050565b805182511461102a576040517f08c379a00000000000000000000000000000000000000000000000000000000081526004016110219061311f565b60405180910390fd5b81516008546110399190612c5d565b34101561107b576040517f08c379a000000000000000000000000000000000000000000000000000000000815260040161107290612ab8565b60405180910390fd5b6009546001835160075461108f9190612c9f565b6110999190612bbb565b11156110da576040517f08c379a00000000000000000000000000000000000000000000000000000000081526004016110d190612d1f565b60405180910390fd5b60005b825181101561120d5760008382815181106110fb576110fa61313f565b5b60200260200101515111611144576040517f08c379a000000000000000000000000000000000000000000000000000000000815260040161113b90612d8b565b60405180910390fd5b60006007600081548092919061115990612b73565b91905055905061116933826113f3565b82828151811061117c5761117b61313f565b5b6020026020010151600a600083815260200190815260200160002090816111a39190612f57565b507fd1be5b5b73bd2ee5ac20a7577463646b5c32b3affa77c0c18cd9645c1067fba6818584815181106111d9576111d861313f565b5b6020026020010151426040516111f193929190613029565b60405180910390a150808061120590612b73565b9150506110dd565b505050565b61121a61162b565b600073ffffffffffffffffffffffffffffffffffffffff168173ffffffffffffffffffffffffffffffffffffffff160361128c5760006040517f1e4fbdf70000000000000000000000000000000000000000000000000000000081526004016112839190612400565b60405180910390fd5b611295816116b2565b50565b6112a061162b565b8060088190555050565b60007f01ffc9a7000000000000000000000000000000000000000000000000000000007bffffffffffffffffffffffffffffffffffffffffffffffffffffffff1916827bffffffffffffffffffffffffffffffffffffffffffffffffffffffff1916149050919050565b60008061132083611b07565b9050600073ffffffffffffffffffffffffffffffffffffffff168173ffffffffffffffffffffffffffffffffffffffff160361139357826040517f7e27328900000000000000000000000000000000000000000000000000000000815260040161138a9190612496565b60405180910390fd5b80915050919050565b60006004600083815260200190815260200160002060009054906101000a900473ffffffffffffffffffffffffffffffffffffffff169050919050565b600033905090565b6113ee8383836001611b44565b505050565b61140d828260405180602001604052806000815250611d09565b5050565b60008061141d84611b07565b9050600073ffffffffffffffffffffffffffffffffffffffff168373ffffffffffffffffffffffffffffffffffffffff161461145f5761145e818486611d25565b5b600073ffffffffffffffffffffffffffffffffffffffff168173ffffffffffffffffffffffffffffffffffffffff16146114f0576114a1600085600080611b44565b6001600360008373ffffffffffffffffffffffffffffffffffffffff1673ffffffffffffffffffffffffffffffffffffffff168152602001908152602001600020600082825403925050819055505b600073ffffffffffffffffffffffffffffffffffffffff168573ffffffffffffffffffffffffffffffffffffffff1614611573576001600360008773ffffffffffffffffffffffffffffffffffffffff1673ffffffffffffffffffffffffffffffffffffffff168152602001908152602001600020600082825401925050819055505b846002600086815260200190815260200160002060006101000a81548173ffffffffffffffffffffffffffffffffffffffff021916908373ffffffffffffffffffffffffffffffffffffffff160217905550838573ffffffffffffffffffffffffffffffffffffffff168273ffffffffffffffffffffffffffffffffffffffff167fddf252ad1be2c89b69c2b068fc378daa952ba7f163c4a11628f55a4df523b3ef60405160405180910390a4809150509392505050565b6116336113d9565b73ffffffffffffffffffffffffffffffffffffffff16611651610b9e565b73ffffffffffffffffffffffffffffffffffffffff16146116b0576116746113d9565b6040517f118cdaa70000000000000000000000000000000000000000000000000000000081526004016116a79190612400565b60405180910390fd5b565b6000600660009054906101000a900473ffffffffffffffffffffffffffffffffffffffff16905081600660006101000a81548173ffffffffffffffffffffffffffffffffffffffff021916908373ffffffffffffffffffffffffffffffffffffffff1602179055508173ffffffffffffffffffffffffffffffffffffffff168173ffffffffffffffffffffffffffffffffffffffff167f8be0079c531659141344cd1fd0a4f28419497f9722a3daafe3b4186f6b6457e060405160405180910390a35050565b600073ffffffffffffffffffffffffffffffffffffffff168273ffffffffffffffffffffffffffffffffffffffff16036117e957816040517f5b08ba180000000000000000000000000000000000000000000000000000000081526004016117e09190612400565b60405180910390fd5b80600560008573ffffffffffffffffffffffffffffffffffffffff1673ffffffffffffffffffffffffffffffffffffffff16815260200190815260200160002060008473ffffffffffffffffffffffffffffffffffffffff1673ffffffffffffffffffffffffffffffffffffffff16815260200190815260200160002060006101000a81548160ff0219169083151502179055508173ffffffffffffffffffffffffffffffffffffffff168373ffffffffffffffffffffffffffffffffffffffff167f17307eab39ab6107e8899845ad3d59bd9653f200f220920489ca2b5937696c31836040516118da919061228f565b60405180910390a3505050565b60008373ffffffffffffffffffffffffffffffffffffffff163b1115611a98578273ffffffffffffffffffffffffffffffffffffffff1663150b7a0261192b6113d9565b8685856040518563ffffffff1660e01b815260040161194d94939291906131c3565b6020604051808303816000875af192505050801561198957506040513d601f19601f820116820180604052508101906119869190613224565b60015b611a0d573d80600081146119b9576040519150601f19603f3d011682016040523d82523d6000602084013e6119be565b606091505b506000815103611a0557836040517f64a0ae920000000000000000000000000000000000000000000000000000000081526004016119fc9190612400565b60405180910390fd5b805181602001fd5b63150b7a0260e01b7bffffffffffffffffffffffffffffffffffffffffffffffffffffffff1916817bffffffffffffffffffffffffffffffffffffffffffffffffffffffff191614611a9657836040517f64a0ae92000000000000000000000000000000000000000000000000000000008152600401611a8d9190612400565b60405180910390fd5b505b50505050565b6060611aa982611314565b506000611ab4611de9565b90506000815111611ad45760405180602001604052806000815250611aff565b80611ade84611e00565b604051602001611aef92919061328d565b6040516020818303038152906040525b915050919050565b60006002600083815260200190815260200160002060009054906101000a900473ffffffffffffffffffffffffffffffffffffffff169050919050565b8080611b7d5750600073ffffffffffffffffffffffffffffffffffffffff168273ffffffffffffffffffffffffffffffffffffffff1614155b15611cb1576000611b8d84611314565b9050600073ffffffffffffffffffffffffffffffffffffffff168373ffffffffffffffffffffffffffffffffffffffff1614158015611bf857508273ffffffffffffffffffffffffffffffffffffffff168173ffffffffffffffffffffffffffffffffffffffff1614155b8015611c0b5750611c098184610f52565b155b15611c4d57826040517fa9fbf51f000000000000000000000000000000000000000000000000000000008152600401611c449190612400565b60405180910390fd5b8115611caf57838573ffffffffffffffffffffffffffffffffffffffff168273ffffffffffffffffffffffffffffffffffffffff167f8c5be1e5ebec7d5bd14f71427d1e84f3dd0314c0f7b2291e5b200ac8c7c3b92560405160405180910390a45b505b836004600085815260200190815260200160002060006101000a81548173ffffffffffffffffffffffffffffffffffffffff021916908373ffffffffffffffffffffffffffffffffffffffff16021790555050505050565b611d138383611ece565b611d2060008484846118e7565b505050565b611d30838383611fc7565b611de457600073ffffffffffffffffffffffffffffffffffffffff168373ffffffffffffffffffffffffffffffffffffffff1603611da557806040517f7e273289000000000000000000000000000000000000000000000000000000008152600401611d9c9190612496565b60405180910390fd5b81816040517f177e802f000000000000000000000000000000000000000000000000000000008152600401611ddb9291906132b1565b60405180910390fd5b505050565b606060405180602001604052806000815250905090565b606060006001611e0f84612088565b01905060008167ffffffffffffffff811115611e2e57611e2d61253b565b5b6040519080825280601f01601f191660200182016040528015611e605781602001600182028036833780820191505090505b509050600082602001820190505b600115611ec3578080600190039150507f3031323334353637383961626364656600000000000000000000000000000000600a86061a8153600a8581611eb757611eb66132da565b5b04945060008503611e6e575b819350505050919050565b600073ffffffffffffffffffffffffffffffffffffffff168273ffffffffffffffffffffffffffffffffffffffff1603611f405760006040517f64a0ae92000000000000000000000000000000000000000000000000000000008152600401611f379190612400565b60405180910390fd5b6000611f4e83836000611411565b9050600073ffffffffffffffffffffffffffffffffffffffff168173ffffffffffffffffffffffffffffffffffffffff1614611fc25760006040517f73c6ac6e000000000000000000000000000000000000000000000000000000008152600401611fb99190612400565b60405180910390fd5b505050565b60008073ffffffffffffffffffffffffffffffffffffffff168373ffffffffffffffffffffffffffffffffffffffff161415801561207f57508273ffffffffffffffffffffffffffffffffffffffff168473ffffffffffffffffffffffffffffffffffffffff161480612040575061203f8484610f52565b5b8061207e57508273ffffffffffffffffffffffffffffffffffffffff166120668361139c565b73ffffffffffffffffffffffffffffffffffffffff16145b5b90509392505050565b600080600090507a184f03e93ff9f4daa797ed6e38ed64bf6a1f01000000000000000083106120e6577a184f03e93ff9f4daa797ed6e38ed64bf6a1f01000000000000000083816120dc576120db6132da565b5b0492506040810190505b6d04ee2d6d415b85acef81000000008310612123576d04ee2d6d415b85acef81000000008381612119576121186132da565b5b0492506020810190505b662386f26fc10000831061215257662386f26fc100008381612148576121476132da565b5b0492506010810190505b6305f5e100831061217b576305f5e1008381612171576121706132da565b5b0492506008810190505b61271083106121a0576127108381612196576121956132da565b5b0492506004810190505b606483106121c357606483816121b9576121b86132da565b5b0492506002810190505b600a83106121d2576001810190505b80915050919050565b6000604051905090565b600080fd5b600080fd5b60007fffffffff0000000000000000000000000000000000000000000000000000000082169050919050565b612224816121ef565b811461222f57600080fd5b50565b6000813590506122418161221b565b92915050565b60006020828403121561225d5761225c6121e5565b5b600061226b84828501612232565b91505092915050565b60008115159050919050565b61228981612274565b82525050565b60006020820190506122a46000830184612280565b92915050565b600081519050919050565b600082825260208201905092915050565b60005b838110156122e45780820151818401526020810190506122c9565b60008484015250505050565b6000601f19601f8301169050919050565b600061230c826122aa565b61231681856122b5565b93506123268185602086016122c6565b61232f816122f0565b840191505092915050565b600060208201905081810360008301526123548184612301565b905092915050565b6000819050919050565b61236f8161235c565b811461237a57600080fd5b50565b60008135905061238c81612366565b92915050565b6000602082840312156123a8576123a76121e5565b5b60006123b68482850161237d565b91505092915050565b600073ffffffffffffffffffffffffffffffffffffffff82169050919050565b60006123ea826123bf565b9050919050565b6123fa816123df565b82525050565b600060208201905061241560008301846123f1565b92915050565b612424816123df565b811461242f57600080fd5b50565b6000813590506124418161241b565b92915050565b6000806040838503121561245e5761245d6121e5565b5b600061246c85828601612432565b925050602061247d8582860161237d565b9150509250929050565b6124908161235c565b82525050565b60006020820190506124ab6000830184612487565b92915050565b6000806000606084860312156124ca576124c96121e5565b5b60006124d886828701612432565b93505060206124e986828701612432565b92505060406124fa8682870161237d565b9150509250925092565b60006020828403121561251a576125196121e5565b5b600061252884828501612432565b91505092915050565b600080fd5b600080fd5b7f4e487b7100000000000000000000000000000000000000000000000000000000600052604160045260246000fd5b612573826122f0565b810181811067ffffffffffffffff821117156125925761259161253b565b5b80604052505050565b60006125a56121db565b90506125b1828261256a565b919050565b600067ffffffffffffffff8211156125d1576125d061253b565b5b6125da826122f0565b9050602081019050919050565b82818337600083830152505050565b6000612609612604846125b6565b61259b565b90508281526020810184848401111561262557612624612536565b5b6126308482856125e7565b509392505050565b600082601f83011261264d5761264c612531565b5b813561265d8482602086016125f6565b91505092915050565b6000806040838503121561267d5761267c6121e5565b5b600083013567ffffffffffffffff81111561269b5761269a6121ea565b5b6126a785828601612638565b925050602083013567ffffffffffffffff8111156126c8576126c76121ea565b5b6126d485828601612638565b9150509250929050565b6126e781612274565b81146126f257600080fd5b50565b600081359050612704816126de565b92915050565b60008060408385031215612721576127206121e5565b5b600061272f85828601612432565b9250506020612740858286016126f5565b9150509250929050565b600067ffffffffffffffff8211156127655761276461253b565b5b61276e826122f0565b9050602081019050919050565b600061278e6127898461274a565b61259b565b9050828152602081018484840111156127aa576127a9612536565b5b6127b58482856125e7565b509392505050565b600082601f8301126127d2576127d1612531565b5b81356127e284826020860161277b565b91505092915050565b60008060008060808587031215612805576128046121e5565b5b600061281387828801612432565b945050602061282487828801612432565b93505060406128358782880161237d565b925050606085013567ffffffffffffffff811115612856576128556121ea565b5b612862878288016127bd565b91505092959194509250565b60008060408385031215612885576128846121e5565b5b600061289385828601612432565b92505060206128a485828601612432565b9150509250929050565b600067ffffffffffffffff8211156128c9576128c861253b565b5b602082029050602081019050919050565b600080fd5b60006128f26128ed846128ae565b61259b565b90508083825260208201905060208402830185811115612915576129146128da565b5b835b8181101561295c57803567ffffffffffffffff81111561293a57612939612531565b5b8086016129478982612638565b85526020850194505050602081019050612917565b5050509392505050565b600082601f83011261297b5761297a612531565b5b813561298b8482602086016128df565b91505092915050565b600080604083850312156129ab576129aa6121e5565b5b600083013567ffffffffffffffff8111156129c9576129c86121ea565b5b6129d585828601612966565b925050602083013567ffffffffffffffff8111156129f6576129f56121ea565b5b612a0285828601612966565b9150509250929050565b7f4e487b7100000000000000000000000000000000000000000000000000000000600052602260045260246000fd5b60006002820490506001821680612a5357607f821691505b602082108103612a6657612a65612a0c565b5b50919050565b7f496e73756666696369656e74207061796d656e74000000000000000000000000600082015250565b6000612aa26014836122b5565b9150612aad82612a6c565b602082019050919050565b60006020820190508181036000830152612ad181612a95565b9050919050565b7f4d617820737570706c7920726561636865640000000000000000000000000000600082015250565b6000612b0e6012836122b5565b9150612b1982612ad8565b602082019050919050565b60006020820190508181036000830152612b3d81612b01565b9050919050565b7f4e487b7100000000000000000000000000000000000000000000000000000000600052601160045260246000fd5b6000612b7e8261235c565b91507fffffffffffffffffffffffffffffffffffffffffffffffffffffffffffffffff8203612bb057612baf612b44565b5b600182019050919050565b6000612bc68261235c565b9150612bd18361235c565b9250828203905081811115612be957612be8612b44565b5b92915050565b6000606082019050612c046000830186612487565b612c116020830185612487565b612c1e6040830184612487565b949350505050565b6000606082019050612c3b60008301866123f1565b612c486020830185612487565b612c5560408301846123f1565b949350505050565b6000612c688261235c565b9150612c738361235c565b9250828202612c818161235c565b91508282048414831517612c9857612c97612b44565b5b5092915050565b6000612caa8261235c565b9150612cb58361235c565b9250828201905080821115612ccd57612ccc612b44565b5b92915050565b7f45786365656473206d617820737570706c790000000000000000000000000000600082015250565b6000612d096012836122b5565b9150612d1482612cd3565b602082019050919050565b60006020820190508181036000830152612d3881612cfc565b9050919050565b7f46696c6520686173682072657175697265640000000000000000000000000000600082015250565b6000612d756012836122b5565b9150612d8082612d3f565b602082019050919050565b60006020820190508181036000830152612da481612d68565b9050919050565b60008190508160005260206000209050919050565b60006020601f8301049050919050565b600082821b905092915050565b600060088302612e0d7fffffffffffffffffffffffffffffffffffffffffffffffffffffffffffffffff82612dd0565b612e178683612dd0565b95508019841693508086168417925050509392505050565b6000819050919050565b6000612e54612e4f612e4a8461235c565b612e2f565b61235c565b9050919050565b6000819050919050565b612e6e83612e39565b612e82612e7a82612e5b565b848454612ddd565b825550505050565b600090565b612e97612e8a565b612ea2818484612e65565b505050565b5b81811015612ec657612ebb600082612e8f565b600181019050612ea8565b5050565b601f821115612f0b57612edc81612dab565b612ee584612dc0565b81016020851015612ef4578190505b612f08612f0085612dc0565b830182612ea7565b50505b505050565b600082821c905092915050565b6000612f2e60001984600802612f10565b1980831691505092915050565b6000612f478383612f1d565b9150826002028217905092915050565b612f60826122aa565b67ffffffffffffffff811115612f7957612f7861253b565b5b612f838254612a3b565b612f8e828285612eca565b600060209050601f831160018114612fc15760008415612faf578287015190505b612fb98582612f3b565b865550613021565b601f198416612fcf86612dab565b60005b82811015612ff757848901518255600182019150602085019450602081019050612fd2565b868310156130145784890151613010601f891682612f1d565b8355505b6001600288020188555050505b505050505050565b600060608201905061303e6000830186612487565b81810360208301526130508185612301565b905061305f6040830184612487565b949350505050565b7f546f6b656e20646f6573206e6f74206578697374000000000000000000000000600082015250565b600061309d6014836122b5565b91506130a882613067565b602082019050919050565b600060208201905081810360008301526130cc81613090565b9050919050565b7f417272617973206c656e677468206d69736d6174636800000000000000000000600082015250565b60006131096016836122b5565b9150613114826130d3565b602082019050919050565b60006020820190508181036000830152613138816130fc565b9050919050565b7f4e487b7100000000000000000000000000000000000000000000000000000000600052603260045260246000fd5b600081519050919050565b600082825260208201905092915050565b60006131958261316e565b61319f8185613179565b93506131af8185602086016122c6565b6131b8816122f0565b840191505092915050565b60006080820190506131d860008301876123f1565b6131e560208301866123f1565b6131f26040830185612487565b8181036060830152613204818461318a565b905095945050505050565b60008151905061321e8161221b565b92915050565b60006020828403121561323a576132396121e5565b5b60006132488482850161320f565b91505092915050565b600081905092915050565b6000613267826122aa565b6132718185613251565b93506132818185602086016122c6565b80840191505092915050565b6000613299828561325c565b91506132a5828461325c565b91508190509392505050565b60006040820190506132c660008301856123f1565b6132d36020830184612487565b9392505050565b7f4e487b7100000000000000000000000000000000000000000000000000000000600052601260045260246000fdfea2646970667358221220440481fbaefc777ec4a36b914c71cfc6424272293e98966a2a767d66e952a91164736f6c63430008140033",
  "linkReferences": {},
  "deployedLinkReferences": {}
}