{
  "_format": "hh-sol-artifact-1",
  "contractName": "SimpleNFT",
  "sourceName": "contracts/SimpleNFT.sol",
  "abi": [
    {
      "inputs": [],
      "stateMutability": "nonpayable",
      "type": "constructor"
    },
    {
      "inputs": [
        {
          "internalType": "address",
          "name": "sender",
          "type": "address"
        },
        {
          "internalType": "uint256",
          "name": "tokenId",
          "type": "uint256"
        },
        {
          "internalType": "address",
          "name": "owner",
          "type": "address"
        }
      ],
      "name": "ERC721IncorrectOwner",
      "type": "error"
    },
    {
      "inputs": [
        {
          "internalType": "address",
          "name": "operator",
          "type": "address"
        },
        {
          "internalType": "uint256",
          "name": "tokenId",
          "type": "uint256"
        }
      ],
      "name": "ERC721InsufficientApproval",
      "type": "error"
    },
    {
      "inputs": [
        {
          "internalType": "address",
          "name": "approver",
          "type": "address"
        }
      ],
      "name": "ERC721InvalidApprover",
      "type": "error"
    },
    {
      "inputs": [
        {
          "internalType": "address",
          "name": "operator",
          "type": "address"
        }
      ],
      "name": "ERC721InvalidOperator",
      "type": "error"
    },
    {
      "inputs": [
        {
          "internalType": "address",
          "name": "owner",
          "type": "address"
        }
      ],
      "name": "ERC721InvalidOwner",
      "type": "error"
    },
    {
      "inputs": [
        {
          "internalType": "address",
          "name": "receiver",
          "type": "address"
        }
      ],
      "name": "ERC721InvalidReceiver",
      "type": "error"
    },
    {
      "inputs": [
        {
          "internalType": "address",
          "name": "sender",
          "type": "address"
        }
      ],
      "name": "ERC721InvalidSender",
      "type": "error"
    },
    {
      "inputs": [
        {
          "internalType": "uint256",
          "name": "tokenId",
          "type": "uint256"
        }
      ],
      "name": "ERC721NonexistentToken",
      "type": "error"
    },
    {
      "inputs": [
        {
          "internalType": "address",
          "name": "owner",
          "type": "address"
        }
      ],
      "name": "OwnableInvalidOwner",
      "type": "error"
    },
    {
      "inputs": [
        {
          "internalType": "address",
          "name": "account",
          "type": "address"
        }
      ],
      "name": "OwnableUnauthorizedAccount",
      "type": "error"
    },
    {
      "anonymous": false,
      "inputs": [
        {
          "indexed": true,
          "internalType": "address",
          "name": "owner",
          "type": "address"
        },
        {
          "indexed": true,
          "internalType": "address",
          "name": "approved",
          "type": "address"
        },
        {
          "indexed": true,
          "internalType": "uint256",
          "name": "tokenId",
          "type": "uint256"
        }
      ],
      "name": "Approval",
      "type": "event"
    },
    {
      "anonymous": false,
      "inputs": [
        {
          "indexed": true,
          "internalType": "address",
          "name": "owner",
          "type": "address"
        },
        {
          "indexed": true,
          "internalType": "address",
          "name": "operator",
          "type": "address"
        },
        {
          "indexed": false,
          "internalType": "bool",
          "name": "approved",
          "type": "bool"
        }
      ],
      "name": "ApprovalForAll",
      "type": "event"
    },
    {
      "anonymous": false,
      "inputs": [
        {
          "indexed": false,
          "internalType": "uint256",
          "name": "tokenId",
          "type": "uint256"
        },
        {
          "indexed": false,
          "internalType": "uint256",
          "name": "timestamp",
          "type": "uint256"
        },
        {
          "indexed": false,
          "internalType": "uint256",
          "name": "gasUsed",
          "type": "uint256"
        }
      ],
      "name": "MintTime",
      "type": "event"
    },
    {
      "anonymous": false,
      "inputs": [
        {
          "indexed": true,
          "internalType": "address",
          "name": "previousOwner",
          "type": "address"
        },
        {
          "indexed": true,
          "internalType": "address",
          "name": "newOwner",
          "type": "address"
        }
      ],
      "name": "OwnershipTransferred",
      "type": "event"
    },
    {
      "anonymous": false,
      "inputs": [
        {
          "indexed": true,
          "internalType": "address",
          "name": "from",
          "type": "address"
        },
        {
          "indexed": true,
          "internalType": "address",
          "name": "to",
          "type": "address"
        },
        {
          "indexed": true,
          "internalType": "uint256",
          "name": "tokenId",
          "type": "uint256"
        }
      ],
      "name": "Transfer",
      "type": "event"
    },
    {
      "inputs": [
        {
          "internalType": "address",
          "name": "to",
          "type": "address"
        },
        {
          "internalType": "uint256",
          "name": "tokenId",
          "type": "uint256"
        }
      ],
      "name": "approve",
      "outputs": [],
      "stateMutability": "nonpayable",
      "type": "function"
    },
    {
      "inputs": [
        {
          "internalType": "address",
          "name": "owner",
          "type": "address"
        }
      ],
      "name": "balanceOf",
      "outputs": [
        {
          "internalType": "uint256",
          "name": "",
          "type": "uint256"
        }
      ],
      "stateMutability": "view",
      "type": "function"
    },
    {
      "inputs": [
        {
          "internalType": "uint256",
          "name": "quantity",
          "type": "uint256"
        }
      ],
      "name": "batchMint",
      "outputs": [],
      "stateMutability": "payable",
      "type": "function"
    },
    {
      "inputs": [
        {
          "internalType": "uint256",
          "name": "tokenId",
          "type": "uint256"
        }
      ],
      "name": "getApproved",
      "outputs": [
        {
          "internalType": "address",
          "name": "",
          "type": "address"
        }
      ],
      "stateMutability": "view",
      "type": "function"
    },
    {
      "inputs": [
        {
          "internalType": "address",
          "name": "owner",
          "type": "address"
        },
        {
          "internalType": "address",
          "name": "operator",
          "type": "address"
        }
      ],
      "name": "isApprovedForAll",
      "outputs": [
        {
          "internalType": "bool",
          "name": "",
          "type": "bool"
        }
      ],
      "stateMutability": "view",
      "type": "function"
    },
    {
      "inputs": [],
      "name": "maxSupply",
      "outputs": [
        {
          "internalType": "uint256",
          "name": "",
          "type": "uint256"
        }
      ],
      "stateMutability": "view",
      "type": "function"
    },
    {
      "inputs": [],
      "name": "mint",
      "outputs": [],
      "stateMutability": "payable",
      "type": "function"
    },
    {
      "inputs": [],
      "name": "mintPrice",
      "outputs": [
        {
          "internalType": "uint256",
          "name": "",
          "type": "uint256"
        }
      ],
      "stateMutability": "view",
      "type": "function"
    },
    {
      "inputs": [],
      "name": "name",
      "outputs": [
        {
          "internalType": "string",
          "name": "",
          "type": "string"
        }
      ],
      "stateMutability": "view",
      "type": "function"
    },
    {
      "inputs": [],
      "name": "owner",
      "outputs": [
        {
          "internalType": "address",
          "name": "",
          "type": "address"
        }
      ],
      "stateMutability": "view",
      "type": "function"
    },
    {
      "inputs": [
        {
          "internalType": "uint256",
          "name": "tokenId",
          "type": "uint256"
        }
      ],
      "name": "ownerOf",
      "outputs": [
        {
          "internalType": "address",
          "name": "",
          "type": "address"
        }
      ],
      "stateMutability": "view",
      "type": "function"
    },
    {
      "inputs": [],
      "name": "renounceOwnership",
      "outputs": [],
      "stateMutability": "nonpayable",
      "type": "function"
    },
    {
      "inputs": [
        {
          "internalType": "address",
          "name": "from",
          "type": "address"
        },
        {
          "internalType": "address",
          "name": "to",
          "type": "address"
        },
        {
          "internalType": "uint256",
          "name": "tokenId",
          "type": "uint256"
        }
      ],
      "name": "safeTransferFrom",
      "outputs": [],
      "stateMutability": "nonpayable",
      "type": "function"
    },
    {
      "inputs": [
        {
          "internalType": "address",
          "name": "from",
          "type": "address"
        },
        {
          "internalType": "address",
          "name": "to",
          "type": "address"
        },
        {
          "internalType": "uint256",
          "name": "tokenId",
          "type": "uint256"
        },
        {
          "internalType": "bytes",
          "name": "data",
          "type": "bytes"
        }
      ],
      "name": "safeTransferFrom",
      "outputs": [],
      "stateMutability": "nonpayable",
      "type": "function"
    },
    {
      "inputs": [
        {
          "internalType": "address",
          "name": "operator",
          "type": "address"
        },
        {
          "internalType": "bool",
          "name": "approved",
          "type": "bool"
        }
      ],
      "name": "setApprovalForAll",
      "outputs": [],
      "stateMutability": "nonpayable",
      "type": "function"
    },
    {
      "inputs": [
        {
          "internalType": "uint256",
          "name": "_newPrice",
          "type": "uint256"
        }
      ],
      "name": "setMintPrice",
      "outputs": [],
      "stateMutability": "nonpayable",
      "type": "function"
    },
    {
      "inputs": [
        {
          "internalType": "bytes4",
          "name": "interfaceId",
          "type": "bytes4"
        }
      ],
      "name": "supportsInterface",
      "outputs": [
        {
          "internalType": "bool",
          "name": "",
          "type": "bool"
        }
      ],
      "stateMutability": "view",
      "type": "function"
    },
    {
      "inputs": [],
      "name": "symbol",
      "outputs": [
        {
          "internalType": "string",
          "name": "",
          "type": "string"
        }
      ],
      "stateMutability": "view",
      "type": "function"
    },
    {
      "inputs": [
        {
          "internalType": "uint256",
          "name": "tokenId",
          "type": "uint256"
        }
      ],
      "name": "tokenURI",
      "outputs": [
        {
          "internalType": "string",
          "name": "",
          "type": "string"
        }
      ],
      "stateMutability": "view",
      "type": "function"
    },
    {
      "inputs": [],
      "name": "totalSupply",
      "outputs": [
        {
          "internalType": "uint256",
          "name": "",
          "type": "uint256"
        }
      ],
      "stateMutability": "view",
      "type": "function"
    },
    {
      "inputs": [
        {
          "internalType": "address",
          "name": "from",
          "type": "address"
        },
        {
          "internalType": "address",
          "name": "to",
          "type": "address"
        },
        {
          "internalType": "uint256",
          "name": "tokenId",
          "type": "uint256"
        }
      ],
      "name": "transferFrom",
      "outputs": [],
      "stateMutability": "nonpayable",
      "type": "function"
    },
    {
      "inputs": [
        {
          "internalType": "address",
          "name": "newOwner",
          "type": "address"
        }
      ],
      "name": "transferOwnership",
      "outputs": [],
      "stateMutability": "nonpayable",
      "type": "function"
    },
    {
      "inputs": [],
      "name": "withdraw",
      "outputs": [],
      "stateMutability": "nonpayable",
      "type": "function"
    }
  ],
  "bytecode": "0x60806040526001600755655af3107a40006008556127106009553480156200002657600080fd5b50336040518060400160405280600981526020017f53696d706c654e465400000000000000000000000000000000000000000000008152506040518060400160405280600481526020017f534e4654000000000000000000000000000000000000000000000000000000008152508160009081620000a5919062000487565b508060019081620000b7919062000487565b505050600073ffffffffffffffffffffffffffffffffffffffff168173ffffffffffffffffffffffffffffffffffffffff16036200012f5760006040517f1e4fbdf7000000000000000000000000000000000000000000000000000000008152600401620001269190620005b3565b60405180910390fd5b62000140816200014760201b60201c565b50620005d0565b6000600660009054906101000a900473ffffffffffffffffffffffffffffffffffffffff16905081600660006101000a81548173ffffffffffffffffffffffffffffffffffffffff021916908373ffffffffffffffffffffffffffffffffffffffff1602179055508173ffffffffffffffffffffffffffffffffffffffff168173ffffffffffffffffffffffffffffffffffffffff167f8be0079c531659141344cd1fd0a4f28419497f9722a3daafe3b4186f6b6457e060405160405180910390a35050565b600081519050919050565b7f4e487b7100000000000000000000000000000000000000000000000000000000600052604160045260246000fd5b7f4e487b7100000000000000000000000000000000000000000000000000000000600052602260045260246000fd5b600060028204905060018216806200028f57607f821691505b602082108103620002a557620002a462000247565b5b50919050565b60008190508160005260206000209050919050565b60006020601f8301049050919050565b600082821b905092915050565b6000600883026200030f7fffffffffffffffffffffffffffffffffffffffffffffffffffffffffffffffff82620002d0565b6200031b8683620002d0565b95508019841693508086168417925050509392505050565b6000819050919050565b6000819050919050565b600062000368620003626200035c8462000333565b6200033d565b62000333565b9050919050565b6000819050919050565b620003848362000347565b6200039c62000393826200036f565b848454620002dd565b825550505050565b600090565b620003b3620003a4565b620003c081848462000379565b505050565b5b81811015620003e857620003dc600082620003a9565b600181019050620003c6565b5050565b601f82111562000437576200040181620002ab565b6200040c84620002c0565b810160208510156200041c578190505b620004346200042b85620002c0565b830182620003c5565b50505b505050565b600082821c905092915050565b60006200045c600019846008026200043c565b1980831691505092915050565b600062000477838362000449565b9150826002028217905092915050565b62000492826200020d565b67ffffffffffffffff811115620004ae57620004ad62000218565b5b620004ba825462000276565b620004c7828285620003ec565b600060209050601f831160018114620004ff5760008415620004ea578287015190505b620004f6858262000469565b86555062000566565b601f1984166200050f86620002ab565b60005b82811015620005395784890151825560018201915060208501945060208101905062000512565b8683101562000559578489015162000555601f89168262000449565b8355505b6001600288020188555050505b505050505050565b600073ffffffffffffffffffffffffffffffffffffffff82169050919050565b60006200059b826200056e565b9050919050565b620005ad816200058e565b82525050565b6000602082019050620005ca6000830184620005a2565b92915050565b61275080620005e06000396000f3fe6080604052600436106101405760003560e01c806370a08231116100b6578063b88d4fde1161006f578063b88d4fde14610408578063c87b56dd14610431578063d5abeb011461046e578063e985e9c514610499578063f2fde38b146104d6578063f4a0a528146104ff57610140565b806370a0823114610319578063715018a6146103565780638467be0d1461036d5780638da5cb5b1461038957806395d89b41146103b4578063a22cb465146103df57610140565b806318160ddd1161010857806318160ddd1461021d57806323b872dd146102485780633ccfd60b1461027157806342842e0e146102885780636352211e146102b15780636817c76c146102ee57610140565b806301ffc9a71461014557806306fdde0314610182578063081812fc146101ad578063095ea7b3146101ea5780631249c58b14610213575b600080fd5b34801561015157600080fd5b5061016c60048036038101906101679190611cfe565b610528565b6040516101799190611d46565b60405180910390f35b34801561018e57600080fd5b5061019761060a565b6040516101a49190611df1565b60405180910390f35b3480156101b957600080fd5b506101d460048036038101906101cf9190611e49565b61069c565b6040516101e19190611eb7565b60405180910390f35b3480156101f657600080fd5b50610211600480360381019061020c9190611efe565b6106b8565b005b61021b6106ce565b005b34801561022957600080fd5b506102326107d4565b60405161023f9190611f4d565b60405180910390f35b34801561025457600080fd5b5061026f600480360381019061026a9190611f68565b6107ea565b005b34801561027d57600080fd5b506102866108ec565b005b34801561029457600080fd5b506102af60048036038101906102aa9190611f68565b610944565b005b3480156102bd57600080fd5b506102d860048036038101906102d39190611e49565b610964565b6040516102e59190611eb7565b60405180910390f35b3480156102fa57600080fd5b50610303610976565b6040516103109190611f4d565b60405180910390f35b34801561032557600080fd5b50610340600480360381019061033b9190611fbb565b61097c565b60405161034d9190611f4d565b60405180910390f35b34801561036257600080fd5b5061036b610a36565b005b61038760048036038101906103829190611e49565b610a4a565b005b34801561039557600080fd5b5061039e610b40565b6040516103ab9190611eb7565b60405180910390f35b3480156103c057600080fd5b506103c9610b6a565b6040516103d69190611df1565b60405180910390f35b3480156103eb57600080fd5b5061040660048036038101906104019190612014565b610bfc565b005b34801561041457600080fd5b5061042f600480360381019061042a9190612189565b610c12565b005b34801561043d57600080fd5b5061045860048036038101906104539190611e49565b610c2f565b6040516104659190611df1565b60405180910390f35b34801561047a57600080fd5b50610483610c98565b6040516104909190611f4d565b60405180910390f35b3480156104a557600080fd5b506104c060048036038101906104bb919061220c565b610c9e565b6040516104cd9190611d46565b60405180910390f35b3480156104e257600080fd5b506104fd60048036038101906104f89190611fbb565b610d32565b005b34801561050b57600080fd5b5061052660048036038101906105219190611e49565b610db8565b005b60007f80ac58cd000000000000000000000000000000000000000000000000000000007bffffffffffffffffffffffffffffffffffffffffffffffffffffffff1916827bffffffffffffffffffffffffffffffffffffffffffffffffffffffff191614806105f357507f5b5e139f000000000000000000000000000000000000000000000000000000007bffffffffffffffffffffffffffffffffffffffffffffffffffffffff1916827bffffffffffffffffffffffffffffffffffffffffffffffffffffffff1916145b80610603575061060282610dca565b5b9050919050565b6060600080546106199061227b565b80601f01602080910402602001604051908101604052809291908181526020018280546106459061227b565b80156106925780601f1061066757610100808354040283529160200191610692565b820191906000526020600020905b81548152906001019060200180831161067557829003601f168201915b5050505050905090565b60006106a782610e34565b506106b182610ebc565b9050919050565b6106ca82826106c5610ef9565b610f01565b5050565b60005a9050600854341015610718576040517f08c379a000000000000000000000000000000000000000000000000000000000815260040161070f906122f8565b60405180910390fd5b600954600754111561075f576040517f08c379a000000000000000000000000000000000000000000000000000000000815260040161075690612364565b60405180910390fd5b600060076000815480929190610774906123b3565b9190505590506107843382610f13565b60005a8361079291906123fb565b90507fc0a5683c31d25098436aa598b2beb88ab5b9d704d80898a32d5ac5755634e21f8242836040516107c79392919061242f565b60405180910390a1505050565b600060016007546107e591906123fb565b905090565b600073ffffffffffffffffffffffffffffffffffffffff168273ffffffffffffffffffffffffffffffffffffffff160361085c5760006040517f64a0ae920000000000000000000000000000000000000000000000000000000081526004016108539190611eb7565b60405180910390fd5b6000610870838361086b610ef9565b610f31565b90508373ffffffffffffffffffffffffffffffffffffffff168173ffffffffffffffffffffffffffffffffffffffff16146108e6578382826040517f64283d7b0000000000000000000000000000000000000000000000000000000081526004016108dd93929190612466565b60405180910390fd5b50505050565b6108f461114b565b6108fc610b40565b73ffffffffffffffffffffffffffffffffffffffff166108fc479081150290604051600060405180830381858888f19350505050158015610941573d6000803e3d6000fd5b50565b61095f83838360405180602001604052806000815250610c12565b505050565b600061096f82610e34565b9050919050565b60085481565b60008073ffffffffffffffffffffffffffffffffffffffff168273ffffffffffffffffffffffffffffffffffffffff16036109ef5760006040517f89c62b640000000000000000000000000000000000000000000000000000000081526004016109e69190611eb7565b60405180910390fd5b600360008373ffffffffffffffffffffffffffffffffffffffff1673ffffffffffffffffffffffffffffffffffffffff168152602001908152602001600020549050919050565b610a3e61114b565b610a4860006111d2565b565b80600854610a58919061249d565b341015610a9a576040517f08c379a0000000000000000000000000000000000000000000000000000000008152600401610a91906122f8565b60405180910390fd5b600954600182600754610aad91906124df565b610ab791906123fb565b1115610af8576040517f08c379a0000000000000000000000000000000000000000000000000000000008152600401610aef9061255f565b60405180910390fd5b60005b81811015610b3c57600060076000815480929190610b18906123b3565b919050559050610b283382610f13565b508080610b34906123b3565b915050610afb565b5050565b6000600660009054906101000a900473ffffffffffffffffffffffffffffffffffffffff16905090565b606060018054610b799061227b565b80601f0160208091040260200160405190810160405280929190818152602001828054610ba59061227b565b8015610bf25780601f10610bc757610100808354040283529160200191610bf2565b820191906000526020600020905b815481529060010190602001808311610bd557829003601f168201915b5050505050905090565b610c0e610c07610ef9565b8383611298565b5050565b610c1d8484846107ea565b610c2984848484611407565b50505050565b6060610c3a82610e34565b506000610c456115be565b90506000815111610c655760405180602001604052806000815250610c90565b80610c6f846115d5565b604051602001610c809291906125bb565b6040516020818303038152906040525b915050919050565b60095481565b6000600560008473ffffffffffffffffffffffffffffffffffffffff1673ffffffffffffffffffffffffffffffffffffffff16815260200190815260200160002060008373ffffffffffffffffffffffffffffffffffffffff1673ffffffffffffffffffffffffffffffffffffffff16815260200190815260200160002060009054906101000a900460ff16905092915050565b610d3a61114b565b600073ffffffffffffffffffffffffffffffffffffffff168173ffffffffffffffffffffffffffffffffffffffff1603610dac5760006040517f1e4fbdf7000000000000000000000000000000000000000000000000000000008152600401610da39190611eb7565b60405180910390fd5b610db5816111d2565b50565b610dc061114b565b8060088190555050565b60007f01ffc9a7000000000000000000000000000000000000000000000000000000007bffffffffffffffffffffffffffffffffffffffffffffffffffffffff1916827bffffffffffffffffffffffffffffffffffffffffffffffffffffffff1916149050919050565b600080610e40836116a3565b9050600073ffffffffffffffffffffffffffffffffffffffff168173ffffffffffffffffffffffffffffffffffffffff1603610eb357826040517f7e273289000000000000000000000000000000000000000000000000000000008152600401610eaa9190611f4d565b60405180910390fd5b80915050919050565b60006004600083815260200190815260200160002060009054906101000a900473ffffffffffffffffffffffffffffffffffffffff169050919050565b600033905090565b610f0e83838360016116e0565b505050565b610f2d8282604051806020016040528060008152506118a5565b5050565b600080610f3d846116a3565b9050600073ffffffffffffffffffffffffffffffffffffffff168373ffffffffffffffffffffffffffffffffffffffff1614610f7f57610f7e8184866118c1565b5b600073ffffffffffffffffffffffffffffffffffffffff168173ffffffffffffffffffffffffffffffffffffffff161461101057610fc16000856000806116e0565b6001600360008373ffffffffffffffffffffffffffffffffffffffff1673ffffffffffffffffffffffffffffffffffffffff168152602001908152602001600020600082825403925050819055505b600073ffffffffffffffffffffffffffffffffffffffff168573ffffffffffffffffffffffffffffffffffffffff1614611093576001600360008773ffffffffffffffffffffffffffffffffffffffff1673ffffffffffffffffffffffffffffffffffffffff168152602001908152602001600020600082825401925050819055505b846002600086815260200190815260200160002060006101000a81548173ffffffffffffffffffffffffffffffffffffffff021916908373ffffffffffffffffffffffffffffffffffffffff160217905550838573ffffffffffffffffffffffffffffffffffffffff168273ffffffffffffffffffffffffffffffffffffffff167fddf252ad1be2c89b69c2b068fc378daa952ba7f163c4a11628f55a4df523b3ef60405160405180910390a4809150509392505050565b611153610ef9565b73ffffffffffffffffffffffffffffffffffffffff16611171610b40565b73ffffffffffffffffffffffffffffffffffffffff16146111d057611194610ef9565b6040517f118cdaa70000000000000000000000000000000000000000000000000000000081526004016111c79190611eb7565b60405180910390fd5b565b6000600660009054906101000a900473ffffffffffffffffffffffffffffffffffffffff16905081600660006101000a81548173ffffffffffffffffffffffffffffffffffffffff021916908373ffffffffffffffffffffffffffffffffffffffff1602179055508173ffffffffffffffffffffffffffffffffffffffff168173ffffffffffffffffffffffffffffffffffffffff167f8be0079c531659141344cd1fd0a4f28419497f9722a3daafe3b4186f6b6457e060405160405180910390a35050565b600073ffffffffffffffffffffffffffffffffffffffff168273ffffffffffffffffffffffffffffffffffffffff160361130957816040517f5b08ba180000000000000000000000000000000000000000000000000000000081526004016113009190611eb7565b60405180910390fd5b80600560008573ffffffffffffffffffffffffffffffffffffffff1673ffffffffffffffffffffffffffffffffffffffff16815260200190815260200160002060008473ffffffffffffffffffffffffffffffffffffffff1673ffffffffffffffffffffffffffffffffffffffff16815260200190815260200160002060006101000a81548160ff0219169083151502179055508173ffffffffffffffffffffffffffffffffffffffff168373ffffffffffffffffffffffffffffffffffffffff167f17307eab39ab6107e8899845ad3d59bd9653f200f220920489ca2b5937696c31836040516113fa9190611d46565b60405180910390a3505050565b60008373ffffffffffffffffffffffffffffffffffffffff163b11156115b8578273ffffffffffffffffffffffffffffffffffffffff1663150b7a0261144b610ef9565b8685856040518563ffffffff1660e01b815260040161146d9493929190612634565b6020604051808303816000875af19250505080156114a957506040513d601f19601f820116820180604052508101906114a69190612695565b60015b61152d573d80600081146114d9576040519150601f19603f3d011682016040523d82523d6000602084013e6114de565b606091505b50600081510361152557836040517f64a0ae9200000000000000000000000000000000000000000000000000000000815260040161151c9190611eb7565b60405180910390fd5b805181602001fd5b63150b7a0260e01b7bffffffffffffffffffffffffffffffffffffffffffffffffffffffff1916817bffffffffffffffffffffffffffffffffffffffffffffffffffffffff1916146115b657836040517f64a0ae920000000000000000000000000000000000000000000000000000000081526004016115ad9190611eb7565b60405180910390fd5b505b50505050565b606060405180602001604052806000815250905090565b6060600060016115e484611985565b01905060008167ffffffffffffffff8111156116035761160261205e565b5b6040519080825280601f01601f1916602001820160405280156116355781602001600182028036833780820191505090505b509050600082602001820190505b600115611698578080600190039150507f3031323334353637383961626364656600000000000000000000000000000000600a86061a8153600a858161168c5761168b6126c2565b5b04945060008503611643575b819350505050919050565b60006002600083815260200190815260200160002060009054906101000a900473ffffffffffffffffffffffffffffffffffffffff169050919050565b80806117195750600073ffffffffffffffffffffffffffffffffffffffff168273ffffffffffffffffffffffffffffffffffffffff1614155b1561184d57600061172984610e34565b9050600073ffffffffffffffffffffffffffffffffffffffff168373ffffffffffffffffffffffffffffffffffffffff161415801561179457508273ffffffffffffffffffffffffffffffffffffffff168173ffffffffffffffffffffffffffffffffffffffff1614155b80156117a757506117a58184610c9e565b155b156117e957826040517fa9fbf51f0000000000000000000000000000000000000000000000000000000081526004016117e09190611eb7565b60405180910390fd5b811561184b57838573ffffffffffffffffffffffffffffffffffffffff168273ffffffffffffffffffffffffffffffffffffffff167f8c5be1e5ebec7d5bd14f71427d1e84f3dd0314c0f7b2291e5b200ac8c7c3b92560405160405180910390a45b505b836004600085815260200190815260200160002060006101000a81548173ffffffffffffffffffffffffffffffffffffffff021916908373ffffffffffffffffffffffffffffffffffffffff16021790555050505050565b6118af8383611ad8565b6118bc6000848484611407565b505050565b6118cc838383611bd1565b61198057600073ffffffffffffffffffffffffffffffffffffffff168373ffffffffffffffffffffffffffffffffffffffff160361194157806040517f7e2732890000000000000000000000000000000000000000000000000000000081526004016119389190611f4d565b60405180910390fd5b81816040517f177e802f0000000000000000000000000000000000000000000000000000000081526004016119779291906126f1565b60405180910390fd5b505050565b600080600090507a184f03e93ff9f4daa797ed6e38ed64bf6a1f01000000000000000083106119e3577a184f03e93ff9f4daa797ed6e38ed64bf6a1f01000000000000000083816119d9576119d86126c2565b5b0492506040810190505b6d04ee2d6d415b85acef81000000008310611a20576d04ee2d6d415b85acef81000000008381611a1657611a156126c2565b5b0492506020810190505b662386f26fc100008310611a4f57662386f26fc100008381611a4557611a446126c2565b5b0492506010810190505b6305f5e1008310611a78576305f5e1008381611a6e57611a6d6126c2565b5b0492506008810190505b6127108310611a9d576127108381611a9357611a926126c2565b5b0492506004810190505b60648310611ac05760648381611ab657611ab56126c2565b5b0492506002810190505b600a8310611acf576001810190505b80915050919050565b600073ffffffffffffffffffffffffffffffffffffffff168273ffffffffffffffffffffffffffffffffffffffff1603611b4a5760006040517f64a0ae92000000000000000000000000000000000000000000000000000000008152600401611b419190611eb7565b60405180910390fd5b6000611b5883836000610f31565b9050600073ffffffffffffffffffffffffffffffffffffffff168173ffffffffffffffffffffffffffffffffffffffff1614611bcc5760006040517f73c6ac6e000000000000000000000000000000000000000000000000000000008152600401611bc39190611eb7565b60405180910390fd5b505050565b60008073ffffffffffffffffffffffffffffffffffffffff168373ffffffffffffffffffffffffffffffffffffffff1614158015611c8957508273ffffffffffffffffffffffffffffffffffffffff168473ffffffffffffffffffffffffffffffffffffffff161480611c4a5750611c498484610c9e565b5b80611c8857508273ffffffffffffffffffffffffffffffffffffffff16611c7083610ebc565b73ffffffffffffffffffffffffffffffffffffffff16145b5b90509392505050565b6000604051905090565b600080fd5b600080fd5b60007fffffffff0000000000000000000000000000000000000000000000000000000082169050919050565b611cdb81611ca6565b8114611ce657600080fd5b50565b600081359050611cf881611cd2565b92915050565b600060208284031215611d1457611d13611c9c565b5b6000611d2284828501611ce9565b91505092915050565b60008115159050919050565b611d4081611d2b565b82525050565b6000602082019050611d5b6000830184611d37565b92915050565b600081519050919050565b600082825260208201905092915050565b60005b83811015611d9b578082015181840152602081019050611d80565b60008484015250505050565b6000601f19601f8301169050919050565b6000611dc382611d61565b611dcd8185611d6c565b9350611ddd818560208601611d7d565b611de681611da7565b840191505092915050565b60006020820190508181036000830152611e0b8184611db8565b905092915050565b6000819050919050565b611e2681611e13565b8114611e3157600080fd5b50565b600081359050611e4381611e1d565b92915050565b600060208284031215611e5f57611e5e611c9c565b5b6000611e6d84828501611e34565b91505092915050565b600073ffffffffffffffffffffffffffffffffffffffff82169050919050565b6000611ea182611e76565b9050919050565b611eb181611e96565b82525050565b6000602082019050611ecc6000830184611ea8565b92915050565b611edb81611e96565b8114611ee657600080fd5b50565b600081359050611ef881611ed2565b92915050565b60008060408385031215611f1557611f14611c9c565b5b6000611f2385828601611ee9565b9250506020611f3485828601611e34565b9150509250929050565b611f4781611e13565b82525050565b6000602082019050611f626000830184611f3e565b92915050565b600080600060608486031215611f8157611f80611c9c565b5b6000611f8f86828701611ee9565b9350506020611fa086828701611ee9565b9250506040611fb186828701611e34565b9150509250925092565b600060208284031215611fd157611fd0611c9c565b5b6000611fdf84828501611ee9565b91505092915050565b611ff181611d2b565b8114611ffc57600080fd5b50565b60008135905061200e81611fe8565b92915050565b6000806040838503121561202b5761202a611c9c565b5b600061203985828601611ee9565b925050602061204a85828601611fff565b9150509250929050565b600080fd5b600080fd5b7f4e487b7100000000000000000000000000000000000000000000000000000000600052604160045260246000fd5b61209682611da7565b810181811067ffffffffffffffff821117156120b5576120b461205e565b5b80604052505050565b60006120c8611c92565b90506120d4828261208d565b919050565b600067ffffffffffffffff8211156120f4576120f361205e565b5b6120fd82611da7565b9050602081019050919050565b82818337600083830152505050565b600061212c612127846120d9565b6120be565b90508281526020810184848401111561214857612147612059565b5b61215384828561210a565b509392505050565b600082601f8301126121705761216f612054565b5b8135612180848260208601612119565b91505092915050565b600080600080608085870312156121a3576121a2611c9c565b5b60006121b187828801611ee9565b94505060206121c287828801611ee9565b93505060406121d387828801611e34565b925050606085013567ffffffffffffffff8111156121f4576121f3611ca1565b5b6122008782880161215b565b91505092959194509250565b6000806040838503121561222357612222611c9c565b5b600061223185828601611ee9565b925050602061224285828601611ee9565b9150509250929050565b7f4e487b7100000000000000000000000000000000000000000000000000000000600052602260045260246000fd5b6000600282049050600182168061229357607f821691505b6020821081036122a6576122a561224c565b5b50919050565b7f496e73756666696369656e74207061796d656e74000000000000000000000000600082015250565b60006122e2601483611d6c565b91506122ed826122ac565b602082019050919050565b60006020820190508181036000830152612311816122d5565b9050919050565b7f4d617820737570706c7920726561636865640000000000000000000000000000600082015250565b600061234e601283611d6c565b915061235982612318565b602082019050919050565b6000602082019050818103600083015261237d81612341565b9050919050565b7f4e487b7100000000000000000000000000000000000000000000000000000000600052601160045260246000fd5b60006123be82611e13565b91507fffffffffffffffffffffffffffffffffffffffffffffffffffffffffffffffff82036123f0576123ef612384565b5b600182019050919050565b600061240682611e13565b915061241183611e13565b925082820390508181111561242957612428612384565b5b92915050565b60006060820190506124446000830186611f3e565b6124516020830185611f3e565b61245e6040830184611f3e565b949350505050565b600060608201905061247b6000830186611ea8565b6124886020830185611f3e565b6124956040830184611ea8565b949350505050565b60006124a882611e13565b91506124b383611e13565b92508282026124c181611e13565b915082820484148315176124d8576124d7612384565b5b5092915050565b60006124ea82611e13565b91506124f583611e13565b925082820190508082111561250d5761250c612384565b5b92915050565b7f45786365656473206d617820737570706c790000000000000000000000000000600082015250565b6000612549601283611d6c565b915061255482612513565b602082019050919050565b600060208201905081810360008301526125788161253c565b9050919050565b600081905092915050565b600061259582611d61565b61259f818561257f565b93506125af818560208601611d7d565b80840191505092915050565b60006125c7828561258a565b91506125d3828461258a565b91508190509392505050565b600081519050919050565b600082825260208201905092915050565b6000612606826125df565b61261081856125ea565b9350612620818560208601611d7d565b61262981611da7565b840191505092915050565b60006080820190506126496000830187611ea8565b6126566020830186611ea8565b6126636040830185611f3e565b818103606083015261267581846125fb565b905095945050505050565b60008151905061268f81611cd2565b92915050565b6000602082840312156126ab576126aa611c9c565b5b60006126b984828501612680565b91505092915050565b7f4e487b7100000000000000000000000000000000000000000000000000000000600052601260045260246000fd5b60006040820190506127066000830185611ea8565b6127136020830184611f3e565b939250505056fea2646970667358221220c46507879a3fae7814c13fe9936b108a069ec3dc15fa818689209558db961fc764736f6c63430008140033",
  "linkReferences": {},
  "deployedLinkReferences": {}
}